:100000000C94C0030C94DD030C94DD030C94DD030D
:100010000C94DD030C94DD030C94DD030C94DD03E0
:100020000C94DD030C94DD030C94920E0C94E915F2
:100030000C9450270C94DD030C94DD030C94DD0329
:100040000C94DD030C94DD030C94DD030C94DD03B0
:100050000C94DD030C946B0F0C94DD030C94DD0306
:100060000C94DD030C94DD030C94DD030C94DD0390
:100070000C94DD030C94DD030C94DD030C94DD0380
:100080000C94DD030C94DD030C94DD030C94DD0370
:100090000C94DD030C94DD030C94DD030C94DD0360
:1000A0000C94DD030C94DD030C94DD0305010902BF
:1000B000A10185020901A1000509190129081500FE
:1000C0002501950875018102050109300931158165
:1000D000257F95027508810609381581257F9501D0
:1000E00075088106050C0A38021581257F95017572
:1000F000088106C0C005010980A101850319012AF4
:10010000B700150126B700950175108100C0050CD8
:100110000901A101850419012AA002150126A002E6
:10012000950175108100C005010906A1018506052C
:100130000719E029E71500250195087501810205D9
:1001400007190029EF1500250195F07501810205B9
:10015000081901290595057501910295017503910D
:1001600001C00660FF0961A1010962150026FF00B8
:100170009520750881020963150026FF00952075FA
:10018000089102C005010906A101050719E029E748
:1001900015002501950875018102950175088101F9
:1001A0000507190029FF150026FF0095067508812F
:1001B000000508190129051500250195057501910E
:1001C00002950175039101C0FD377A585A00000469
:1001D000E6D6B4460200210116000000742FE5A304
:1001E000E0060B016F5D003D8889C65436C3174F8A
:1001F000E4DDF7CB002F37A698544F5FCD39B09789
:1002000032EAC948BAAD41981C2AB1AFDF0180A1DA
:10021000E28EDEF88F92313171D313D4738BB30138
:100220006FFBDB82D9C34F850B93F2014E5DE0ACCF
:10023000B0EE347821D1E8D196B8A42CAFDEA096E8
:100240005DAC122CC456663A096B64B0CB9A97AE7B
:10025000CBA6F35CC7C6CDDBE400CC433A38006CD8
:1002600004FB57032FDB6B471FCC65300837365A2A
:1002700012922B9CA27EE2CEE9E37E5B598F27721D
:1002800085A3843D4E4587C9BB1D5AF7AE52E67122
:100290005EBF0923059537C195671327D27B6D355E
:1002A00017686251C6786F2E9EC301DA34B7559233
:1002B0002F325E7801BD06DCDE601B246CDE45DE7D
:1002C000FC7B6EC49861CEAAD32C5523A26C4579D1
:1002D000F1CE62F78BC66FA93818972B44673BB6EF
:1002E000183D0B1B81ABC01029012F9656F32AB283
:1002F000543928518D3816681CE890ECBB1E708E5E
:100300004B7D72A6FC7CBC70256916D3A93D232FBA
:10031000923F4CAD08F78AB8266ECE134A5A1E8C0F
:100320002303EEF68CF7A687062309969E46F50072
:10033000A5D95D0F1B71B55ADB2916EB9BC50A27A2
:100340009A9FE52ED860DCF1DC7BD239C5B3DE9212
:10035000BBD0402A2FB70000048D5C515933914D1A
:1003600000018B038C0C0000F1BA175EB1C467FB6F
:10037000020000000004595A35001E001F00200032
:100380002100220050004F002300240025002600F9
:1003900027002A002B0014001A000800150017007F
:1003A0002D002F001C0018000C001200130031005B
:1003B000394304001600070009000A00000000008D
:1003C0000B000D000E000F0033003443E1001D0050
:1003D0001B000600190005002E003000110010005F
:1003E000360037003800E500292B292BE000E20019
:1003F000E3000000000000000000E700E600E40069
:10040000292B292B000028002A432C2662000052A9
:1004100001525100520050002C262A434F00000088
:1004200001003A003B003C003D003E004400450016
:100430003F00400041004200430001000100010074
:1004400001000100010001000100010001000100A4
:100450000100010001000100010001000100010094
:100460000100010000000000010001000100010086
:100470000100010001000100010001000100010074
:100480000100010001000100010001000100010064
:100490000100010001000100010000000000000057
:1004A0000000010001000100010001000000010046
:1004B0000100010059000052025201000100010038
:1004C0000100010001000000010001000100010025
:1004D0000100010001000100010001000100010014
:1004E0000100010001000100010001000100010004
:1004F00001000100010001000100010001000100F4
:1005000001000100010001000100010000000000E5
:1005100001000100010001000100010001000100D3
:1005200001000100010001000100010001000100C3
:1005300001000100010001000100010001000100B3
:1005400001000000000000000000010001000100A7
:100550000100010000000100010001005A000052EA
:100560000352010001000100010001000100000030
:10057000140900000000000000000000520100000B
:10058000000000000000000000000000000000006B
:10059000000000000000000050010000000000000A
:1005A0000000000000000000340D500951095209FC
:1005B0004F090000000000005000510052004F00A1
:1005C0000000340D000000000000000000000000EA
:1005D0004F010000000000000000000000000000CB
:1005E0000100010001000100010000000000000006
:1005F00000000100010001000100000000000100F6
:10060000010001005B0000520000AA00A900BD002B
:1006100001000100BE00000009025B00030100A010
:10062000FA09040000010301010009211101000180
:1006300022440007058103080001090401000203A8
:100640000000000921110100012222000705820398
:100650002000010705030320000109040200010333
:1006600000000009211101000122B60007058403E2
:1006700020000112010002000000080912282301D5
:1006800000010203011C037600690061006C003A5E
:1006900000660036003400630032006200330063FD
:1006A00000000012034500720067006F0064006FD5
:1006B000006E006500000012034B002E0054002E57
:1006C0000045002E0043002E000000040309040032
:1006D000000000000000000000000000000000001A
:1006E000000000000000000000000000000000000A
:1006F0000000007E0F00D4FFFFFFC700000078005D
:10070000000000000000002A2B280000000000006C
:100710000000000000000000000029000000002C84
:100720001E3420212224342627252E362D37382723
:100730001E1F202122232425263333362E37381F2F
:100740000405060708090A0B0C0D0E0F10111213F1
:100750001415161718191A1B1C1D2F3130232D358F
:100760000405060708090A0B0C0D0E0F10111213D1
:100770001415161718191A1B1C1D2F3130354C0073
:1007800011241FBECFEFDAE0DEBFCDBF11E0A0E045
:10079000B1E0E4E0F3E602C005900D92A036B107A7
:1007A000D9F724E0A0E6B1E001C01D92A733B2075B
:1007B000E1F70E9477270C942C310C940000482F0D
:1007C000209136049091ED0359E0291302C080E096
:1007D000089530E0529FF001539FF00D1124E25133
:1007E000FC4F8181681306C08081481303C0858156
:1007F0008111EECF2F5F3F4F2770E7CFE8EDF0E09C
:1008000080818E7F80831092E2001092DA00109235
:10081000E100A0EEB0E08C9181608C9380818F77B5
:10082000808319BCA7EDB0E08C918E7F8C93808182
:100830008F7E80831092D60308952091E40030913A
:10084000E50095E6A9012091EC00822F817020FF40
:1008500006C08091E80080FF06C080E008952091E6
:10086000E80022FD1AC08091E303882389F08530D7
:1008700089F08091EB0085FD0FC02091E40030915C
:10088000E50042175307F9F29150E1F684E008952C
:1008900082E0089583E0089581E008958091E50362
:1008A00087FF13C08091E80082FF06C08091E800B6
:1008B0008B778093E80004C08091E3038111F2CF2D
:1008C00008958091E3038823D9F38091E80080FFA5
:1008D000F8CF8091E8008E77ECCF982F9093E900C5
:1008E000242F762F50E0891731F07091EC00209181
:1008F000ED005091F00021FD07C09F5F973071F728
:100900008093E90081E008953091EB003E7F3093C1
:10091000EB003091ED003D7F3093ED003091EB0026
:1009200031603093EB007093EC002093ED00509316
:10093000F0002091EE0027FDE0CF80E00895B0E0C8
:10094000A0E0E5EAF4E00C945730C8EDD0E08881EF
:100950008F7E8883E7EDF0E080818160808384E092
:1009600082BF81E08093D60388818E7F888302EEE8
:1009700010E0F80110821092DA0081EEC82ED12C1E
:10098000F601108288818F778883888180688883C8
:1009900088818F7D888319BC1092E3031092E40351
:1009A0001092E2031092E10390EEE92EF12CF70190
:1009B00080818B7F808388818160888342E060E0D2
:1009C00080E00E946D04F60180818E7F8083F801B3
:1009D000808181608083808188608083F70180814D
:1009E0008E7F8083888180618883CDB7DEB7E8E021
:1009F0000C947330FC018091EB039091EC0386170B
:100A00009707A0F06115710529F49091E8009E7791
:100A10009093E80090E06115710551F4911108C0C0
:100A20008091E80082FF34C080E00895BC01F2CFDD
:100A30008091E3038823C1F18530C1F18091E80002
:100A400083FD30C08091E80082FDEACF8091E8000C
:100A500080FFE1CF8091F3002091F200382F6115E3
:100A6000710519F02830310558F091E02830310532
:100A700009F090E02091E8002E772093E800CBCF9A
:100A800081918093F100615071092F5F3F4FE7CF53
:100A90008091E303882341F0853041F08091E800A4
:100AA00083FFBECF81E0089582E0089583E008953A
:100AB0008091D803089587E797E790930108809382
:100AC000000888E19AE00FB6F894A895809360003A
:100AD0000FBE90936000FFCF2FB7F8946091D203C0
:100AE0007091D3038091D4039091D5032FBF0895C3
:100AF00090910E019923D1F09091CF0397FF16C0EA
:100B0000E82FE695E695E695EE31E0F4F0E0E6595B
:100B1000FE4F282F277081E090E001C0880F2A95B2
:100B2000EAF780959281892382830895E4E6F1E0D3
:100B30009191891303C0DF0111971C9291E0EA366D
:100B4000F907B1F7089590910E019923C1F09091A2
:100B5000CF0397FF14C0E82FE695E695E695EE31B2
:100B6000F8F4F0E0E659FE4F877021E030E001C074
:100B7000220F8A95EAF78281822B82830895A4E668
:100B8000B1E0EFEF90E02D91821751F0EF3F19F4B3
:100B9000211101C0E92F9F5F9630A9F7EF3F09F4BB
:100BA00008950E2E000CFF0BEE59FE4FE6CFA3E08A
:100BB000B0E0EDEDF5E00C945D302091CD03309187
:100BC000CE0328173907A1F09093CE038093CD036D
:100BD000E091CB03F091CC03309751F024E02983CE
:100BE0009B838A830084F185E02DCE0101960995CF
:100BF0002396E2E00C947930A3E0B0E0E2E0F6E086
:100C00000C945D302091C9033091CA03281739072D
:100C1000A1F09093CA038093C903E091CB03F091B4
:100C2000CC03309751F023E029839B838A8300848F
:100C3000F185E02DCE01019609952396E2E00C9412
:100C40007930E091CB03F091CC03309729F00190FB
:100C5000F081E02D0995089580E008954115510532
:100C600011F0FA01099508958091B70380FD16C02F
:100C700081FD16C082FD16C08091B6038823A1F0C5
:100C8000883280F428E0829FC001112468E270E07D
:100C90000E948430862F672B39F0089582E00895F2
:100CA00084E0089588E0089581E008958091B70375
:100CB00080FD14C081FD14C082FD16C08091B50373
:100CC000882381F08E3180F420E5829FC0011124B9
:100CD0006EE170E00E948430862F089584E10895CB
:100CE00088E2089588E0089580E50895282F35EB7F
:100CF0002303C001112497FF04C080589109892F54
:100D0000089580589F4FFBCFCF93DF93EC01409124
:100D1000AA035091AB036091AC037091AD032FB760
:100D2000F8948091D2039091D303A091D403B09111
:100D3000D5032FBF841B950BA60BB70B843F9140A7
:100D4000A105B10518F58091AA039091AB03A0917C
:100D5000AC03B091AD038093A6039093A703A09337
:100D6000A803B093A90384EF91E0A0E0B0E08093E2
:100D7000A2039093A303A093A403B093A503D093DD
:100D8000B203C093B103DF91CF9108950E946C0527
:100D90006093A6037093A7038093A8039093A9037D
:100DA00082E390E0A0E0B0E0E2CFFC018481862302
:100DB00051F492819923B9F06923808583FF05C09E
:100DC00081E061110FC080E00895892F8F709295A6
:100DD0009F70982B862F8F7062956F70682B81E0C3
:100DE0009613F1CF089581E0FDCFDC0160919E0361
:100DF00080919F03962F891301C00895292F30E019
:100E0000F901EE0FFF1FEA56FC4F408151814A174E
:100E10005B07A1F487E08A9FA0018B9F500D1124EE
:100E20004F5E5C4F81E0FA0184839613E6CF2F5F1B
:100E30003F4F2370332720939E0308952F5F3F4F2A
:100E4000922F9370D8CF10920F0310920E03E1E10E
:100E5000F3E08581811102C014821682379683E007
:100E6000ED32F807B1F70895EDE2F2E090E080E0AE
:100E700064EA7BE14BEC5BE126E23BE1778366834E
:100E80005187408733872287978786870196709698
:100E90008430910599F7089581152CE7920741F464
:100EA00020910C0130910D01232B11F490E080E092
:100EB000089580E008959091CF0392FF10C041E023
:100EC000282F2471243009F040E031E0282F2871C8
:100ED000283009F030E0431711F02CE0822793FF0F
:100EE00010C041E0282F2471243109F040E031E0A6
:100EF000282F2871283109F030E0431711F02CE039
:100F000082273091D00330FF10C051E0282F21718B
:100F1000213009F050E041E0282F2871283009F0F5
:100F200040E0541711F029E0822731FF10C041E062
:100F3000282F2171213109F040E031E0282F28715C
:100F4000283109F030E0431711F029E0822794FDA1
:100F5000877E089582389105B9F1B0F48133910507
:100F600009F47DC048F48932910509F46DC08A32D4
:100F7000910509F47BC008958533910509F45FC09C
:100F80008933910509F10895833E9105D9F138F42B
:100F9000803E910529F1823E910579F10895863EC2
:100FA0009105D9F1873E910509F43EC0843E910533
:100FB00041F52091D00321FF24C08091CF0384FD0F
:100FC00019C087EE90E008952091CF03237009F0B7
:100FD0005AC02091D00323FF14C089E290E0089505
:100FE0002091CF0320FD38C03091D00330FF09C0DD
:100FF00024FF43C090E080E008952091CF0322FDBC
:10100000F7CF08952091CF0322FD3AC03091D0034D
:1010100030FD39C024FFF5CFEDCF2091CF0323FF62
:10102000F0CF24FDE7CFCDCF2091CF0323FD2EC0FD
:101030003091D00331FFEECF84EE90E008952091FF
:10104000CF0325FFDECFC9CF2091CF0325FD21C0DF
:101050002091D00323FFD5CF89E390E0D2CF209118
:10106000CF0326FFCECF8AE290E008952091CF03F0
:1010700026FFC7CF81E390E0089583EE90E00895C6
:1010800082EE90E0089580EE90E0089586EE90E084
:10109000089585E390E008951F93CF93DF930E9416
:1010A000AA07EC01C11580E5D807F0F5C11580E469
:1010B000D80708F09CC0C03ED10520F5CD3CD10535
:1010C00008F082C0C83AD10578F4C53AD10508F0D5
:1010D00073C0C130D10519F1209709F1C430D10591
:1010E000F0F4D0E0C0E01BC0C33CD105D0F7C85A33
:1010F000D0E0CC0FDD1FC65EDE4F0990D881C02D39
:10110000D4640DC0C11580E2D80708F0D1C0C11564
:1011100081E0D80708F05AC0C83ED10510F7CE01CB
:10112000DF91CF911F910895C03682E5D80718F559
:10113000C03482E5D80708F06BC0C03282E5D8071A
:1011400008F05FC0C11582E5D80708F497C02C2FBE
:101150002695269580E2289F900111248C2F83707C
:10116000C1E0D0E002C0CC0FDD1F8A95E2F7C22BB0
:10117000D32BDD68D4CFC03A82E5D80760F4C038FD
:1011800082E5D80708F459C0CF71D0E0DC2FCC2716
:10119000C46FD06AC4CFC03C82E5D80708F462C0EF
:1011A000C03E82E5D80708F09CCFDC2FCC27CC27A7
:1011B000DF71C06FD06AB3CFC55AD0E0C95EDE4FD1
:1011C000C881D0E0D064ABCFD065A9CF8D2F0E946D
:1011D0005B07182FCE0199270E94AA07C12FD0E0E4
:1011E000DC2FCC27CC27DF71C82BD92B98CFCE0191
:1011F00099270E94AA07CC27DF70C82BD92BD06A69
:101200008ECFCF71D0E0DC2FCC27C16FD06A87CFD3
:101210002C2F26952695277080E2289F9001112477
:101220008C2F8370C1E0D0E002C0CC0FDD1F8A9507
:10123000E2F7C22BD32BDC6872CF2C2F2695269594
:10124000277080E2289F900111248C2F8370C1E0C9
:10125000D0E002C0CC0FDD1F8A95E2F7C22BD32B62
:10126000DA685DCF8C2F8F710E945B07C82FD0E0AA
:10127000DC2FCC27CC27DF71D06251CF8C2F8F7120
:101280000E945B0755E0D695C7955A95E1F7CF7058
:10129000D0E0DC2FCC27282F30E084FF05C044E0CD
:1012A000220F331F4A95E1F7C22BD32BD06937CFDA
:1012B0008D2F8F710E945B07182FCE0199270E94F6
:1012C000AA07C12FD0E0DC2FCC27CC27DF71C82B99
:1012D000D92BD2CF8091E501882331F01092E5011E
:1012E0001092E4011092E301089580959091C50356
:1012F00098239093C503089580959091C6039823F1
:101300009093C60308951092BA011092B9011092F9
:10131000B80108959091B701292F282321F08095D5
:1013200089238093B7010895809136049091ED034D
:10133000981301C008958F5F8770FACF292F9630D8
:1013400078F58E3068F590E03EE0239F800D911D8A
:101350001124682F677023E0969587952A95E1F709
:10136000FC01EE0FFF1FE80FF91FE357FE4F50E09F
:1013700040E080E0219130E0062E02C036952795AE
:101380000A94E2F721703327042E01C0220F0A9439
:10139000EAF7822B4F5F5F4F4330510559F70895AD
:1013A00080E00895292F963098F58E3088F590E0EA
:1013B0003EE0239F800D911D1124282F277041E0CE
:1013C00001C0440F2A95EAF723E0969587952A9560
:1013D000E1F7FC01EE0FFF1FE80FF91FE357FE4F87
:1013E00030E020E070E05191DF011197CB01022E37
:1013F00002C0969587950A94E2F7817081958527BA
:10140000842385278C932F5F3F4F2330310559F775
:1014100008958093FC0108959091FC0121E030E053
:10142000F90101C0EE0F8A95EAF7D90102C0AA0FAF
:10143000BB1F6A95E2F7EA2B01C0220F4A95EAF733
:10144000892F8E23E81305C0292B822F0E94090AB9
:10145000089520952923F9CF21E030E001C0220F23
:101460008A95EAF720958091FC0182230E94090A5F
:1014700008959091BA01809589238093BA01282F0D
:10148000277069F4891759F09091D00392FF07C033
:101490008695869586950E942C0A0E948309089558
:1014A00021E030E001C0220F8A95EAF78091FC012B
:1014B000822B0E94090A08958093FB01089580FF02
:1014C00009C02D9A81FF08C02E9A82FF07C02B9A6F
:1014D00081E008952D98F6CF2E98F7CF2B98F8CF6E
:1014E000829590E09C01220F331F220F331F2C7C2A
:1014F00095958795959587958373282B30E0C9013D
:10150000880F991F8A7A359527952575822B08951E
:101510009C013A9521153F4150F5FC01EE27F170F1
:10152000BC0166277270AC01442754709C012227CD
:10153000387094FF0EC080E1EF2B09F480E0672B38
:1015400009F08062452B09F08064232B89F08068C4
:10155000089581E0EF2B09F480E0672B09F08260A9
:10156000452B09F08460232B19F08860089580E0F2
:101570000895559A5D9A0895239A2B980895269A6E
:101580002E980895259A2D980895A1E0B0E0EBECEF
:10159000FAE00C945A3069832DE0F22E811102C0DA
:1015A0009CE0F92E04E610E021E030E0AE014F5F50
:1015B0005F4F682F80E40E94612F892B61F421E046
:1015C00030E0AE014F5F5F4F6F2D80E40E94612FCE
:1015D00021E0892B09F020E0822F2196E5E00C9490
:1015E00076308091EA0181110BC06FEF81E00E949B
:1015F000C50A91E089279091EA01980F9093EA013A
:101600000895CF936FEF80E00E94C50AC1E08C2758
:101610009091EA01980F9093EA016FEF81E00E94A8
:10162000C50A8C27C091EA01C80FC093EA01CF9187
:1016300008950F931F93CF93DF938B01EA0190914D
:10164000E303943061F58093E9008FEF9091E80017
:10165000815095FD06C095ED9A95F1F70000811136
:10166000F5CF8091E80085FF1AC00E941D0481110A
:1016700011C08091E80085FD06C08091E8008E775A
:101680008093E800F2CFF80181918F018093F100FF
:10169000219779F78091E8008E778093E800DF91B9
:1016A000CF911F910F91089543E050E0BC0184E079
:1016B0000E94190B089546E050E0BC0184E00E94AE
:1016C000190B089540E250E0BC0184E00E94190B20
:1016D0000895CF93DF93EC0148E050E0BC0181E036
:1016E0000E94190B88E0FE01A9EDB3E001900D9274
:1016F0008A95E1F7DF91CF910895CF93C82F6FEFCF
:10170000811166EB84E290E00E94F0306FEFC1112E
:1017100067E485E290E00E94F0306FEFC11163E171
:1017200086E290E00E94F030CF910895CF93DF934E
:10173000C8E6D3E060E0CE010E94F0302196C115EA
:1017400084E0D807B9F7DF91CF9108951F93CF9325
:10175000DF93122F8430E0F46630D0F44E30C0F4C2
:10176000C42FD0E0CC0FDD1F9CE1699FC00DD11DBF
:10177000112498EA899FC00DD11D1124632FCE0139
:1017800088960E94F030612FCE0189960E94F03039
:10179000DF91CF911F91089584E290E00E94D230B2
:1017A000863B89F485E290E00E94D230873459F478
:1017B00086E290E00E94D23091E0833109F090E01F
:1017C000892F8170089580E0FCCF0F931F93CF93F2
:1017D000DF93843030F5663020F54E3010F5C42F9D
:1017E000D0E0CC0FDD1F2CE1629FC00DD11D112474
:1017F00038EA839FC00DD11D1124CE0188960E9426
:10180000D230082F10E0102F0027CE0189960E94B9
:10181000D2309801282BC901DF91CF911F910F91F0
:10182000089590E080E0F8CF462F20911B02309180
:101830001C02232B99F4703F39F4603F79F48091B6
:101840001D0290911E020895763040F46E3030F4FF
:10185000843020F4672F0E94E50B089590E080E02B
:101860000895CF92DF92FF920F931F93CF93DF9350
:101870006C010091FC018091FB01082BC3E0D0E0DA
:1018800010E0FC2EC8010C2E02C0959587950A9495
:10189000E2F780FD0CC02197A0F7F12C8F2DDF918E
:1018A000CF911F910F91FF90DF90CF900895B601D7
:1018B0008C2F0E94140C0E944C08019761F3EECF0C
:1018C000CF93DF93EC010E94310CBE010E94140CF7
:1018D0000E944C08DF91CF910895FC0184818823F8
:1018E000F9F087819085009791F00E944C089295BD
:1018F0009F709630B9F080F4925F9F70923080F4C0
:10190000803F19F058F4883E58F481E008958081B2
:1019100091810E94600CEBCF9A5FEFCF843FA9F3D7
:1019200080E00895883E88F3813FD1F7EECFA6E0AE
:10193000B0E0EDE9FCE00C945C309C01FC01878197
:1019400090850097E1F486E0DE01119601900D92FA
:101950008A95E1F7F901258189819A81222399F0FD
:10196000662389F00E94310C182F682F89819A8193
:101970000E94D20969817A81812F0E94140C2696D7
:10198000E3E00C9478300E949E09182FF3CFAEE16B
:10199000B0E0EDECFCE00C945230C0900C01D09023
:1019A0000D0181E090E090930D0180930C0198E788
:1019B000A92E93E0B92E00E0750110E015C0F401E6
:1019C00025913491472D612F802F0E94A60B82E034
:1019D000880E911C7394EEE07E12F1CFFCE1EF0EC5
:1019E000F11C1F5F163019F04701712CE8CF0F5F13
:1019F00088EAA80EB11C0430F9F61A8219821C82FA
:101A00001B821E821D8218861F8288EC90E09A87B6
:101A100089874AE050E068EC72E0CE0101960E94AE
:101A200014314AE050E062ED72E0CE0101960E946E
:101A300014314AE050E06CED72E0CE0101960E9454
:101A400014314AE050E066EE72E0CE0101960E9449
:101A500014318AE0B82E8E01055F1F4FF8018B2DDF
:101A600011928A95E9F74AE050E060EF72E0C80110
:101A70000E9414314AE050E06AEF72E0C8010E940F
:101A800014314AE050E064E073E0C8010E94143170
:101A90004AE050E06EE073E0C8010E9414317E011C
:101AA000E5E1EE0EF11CF7011192BA94E9F78FEF20
:101AB0009FEF9A8F898F87E08E8F08E113E04AE0CD
:101AC00050E0B801C7010E941431065F1F4F08366D
:101AD000F3E01F07A1F7D0920D01C0920C016E96A2
:101AE000EDE00C946E3080E00E947D0B60E087E2B8
:101AF00090E00E94F0300E94C70C0E94960B81E09B
:101B00000E947D0B08959B01843070F49AE0899FB8
:101B1000B001112468537D4F4AE050E0C9010E9492
:101B2000C23090E080E008958FEF9FEF0895AAE023
:101B3000B0E0EDE9FDE00C945D309C0137552F3F9E
:101B4000310509F068F4BE016F5F7F4F0E94830D7D
:101B5000892B31F489859A852A96E2E00C947930B4
:101B600088EC90E0F9CFAAE0B0E0E9EBFDE00C945E
:101B7000553006E912E088E1E82E83E0F82E97E080
:101B8000B92E25E9C22E22E0D22EAA24A3944AE03F
:101B900050E0B701CE0101960E94C230F80138969C
:101BA000DF018B2D1D928A95E9F789819A81D801F1
:101BB00011969C938E938F8112968C9312978D81A0
:101BC00013968C931397888514968C931497898514
:101BD00015968C9315978B819C8117969C938E9369
:101BE000169718961C9218978A8587FF3CC01E96F8
:101BF0001C921E921D9780FF03C0D8011896AC92CC
:101C000081FF04C0F80190859260908782FF07C031
:101C1000D80118969C911897946018969C9383FF0E
:101C200004C0F80190859860908784FF07C0D801B0
:101C300018969C911897906118969C9385FF04C004
:101C4000F801808580628087FAE0EF0EF11C015F69
:101C50001F4F88E6E81683E0F80609F098CF2A9629
:101C6000EAE00C947130F801D686C586C4CFAAE0AC
:101C7000B0E0EDE3FEE00C945730EDE6F2E088E2F0
:101C8000DF011D928A95E9F7E1E1F3E08CE1DF01E4
:101C90001D928A95E9F78DE6C82E82E0D82E7F0145
:101CA00000EF12E0F701D182C0824AE050E0B801B3
:101CB000CE0101960E94C23088E0FE013196D60125
:101CC00001900D928A95E1F789859A85D70113963F
:101CD0009C938E931297BAE0CB0ED11CE7E0EE0EE8
:101CE000F11C065F1F4F0831F3E01F07D9F62A9653
:101CF000E8E00C9473309091D00392FB222720F9F6
:101D0000281779F080FB92F99093D0036091CF036C
:101D10007091D00384E090E00E940E3182E00E9436
:101D2000390A08951F920F920FB60F9211242F9324
:101D30003F934F935F936F937F938F939F93AF9353
:101D4000BF93EF93FF938091E10082FF09C08091E0
:101D5000E20082FF05C08091E1008B7F8093E1006B
:101D60008091DA0080FF24C08091D80080FF20C0DD
:101D70008091DA008E7F8093DA008091D90080FF15
:101D80009DC080E189BD82E189BD09B400FEFDCF1F
:101D900081E08093E3038091D603811109C00E9402
:101DA000FE030E949F048091E20084608093E20021
:101DB0008091E10080FF17C08091E20080FF13C096
:101DC0008091E2008E7F8093E2008091E20080614A
:101DD0008093E2008091D80080628093D80019BC83
:101DE00085E08093E3038091E10084FF2BC0809124
:101DF000E20084FF27C080E189BD82E189BD89B509
:101E0000982F917080FFFBCF8091D8008F7D8093B9
:101E1000D8008091E1008F7E8093E1008091E20004
:101E20008F7E8093E2008091E20081608093E200E7
:101E30008091E403882309F447C084E08093E3039E
:101E40008091E3038091E10083FF27C08091E2004D
:101E500083FF23C08091E100877F8093E10082E0CF
:101E60008093E3031092E4038091E1008E7F8093DE
:101E7000E1008091E2008E7F8093E2008091E20099
:101E800080618093E20042E060E080E00E946D04A7
:101E90008091F00088608093F000FF91EF91BF91F6
:101EA000AF919F918F917F916F915F914F913F91F2
:101EB0002F910F900FBE0F901F90189519BC109284
:101EC000E3031092D60374CF8091E30087FD93E083
:101ED0009093E303B5CF78941F921FB61F921124FD
:101EE0008F939F93AF93BF938091D2039091D3032D
:101EF000A091D403B091D5030196A11DB11D80938B
:101F0000D2039093D303A093D403B093D503BF918E
:101F1000AF919F918F911F901FBE1F9018959C01AC
:101F20004FB7F8948091D2039091D303A091D4033A
:101F3000B091D5034FBF821B930B08952FB7F89430
:101F40008091D2039091D303A091D403B091D50393
:101F50002FBF08950E949E0F9C019091BE03809117
:101F6000BF03982B21F03093BB032093BA039091C9
:101F7000C0038091C103982B21F03093B9032093C3
:101F8000B803E091CB03F091CC03309749F082E0A5
:101F90008093BC030680F781E02D8CEB93E00995DC
:101FA0000895662309F45DC08D3C41F40E945606F5
:101FB00081958093BF030E94AA0F08958E3C19F467
:101FC0000E945606F6CF8F3C31F40E94560681954A
:101FD0008093BE03F0CF803D19F40E945606F8CFDF
:101FE000893D29F40E9434068093C003E4CF8A3DE2
:101FF00021F40E9434068195F7CF8B3D31F40E9485
:10200000340681958093C103D6CF8C3D19F40E948C
:102010003406F8CF9FE2980F983070F4815D990BE9
:1020200021E030E001C0220F8A95EAF78091BD03DC
:10203000822B8093BD03BFCF8D3D31F48091B703D8
:1020400081608093B703B7CF8E3D21F48091B703B1
:102050008260F7CF8F3D09F0AECF8091B7038460E7
:10206000F0CF4091BE038D3C59F48091BF0387FFB0
:102070000DC01092BF0341110BC01092B50308C0F0
:102080008E3C81F48091BF0318169CF3442381F0A9
:102090008091C0039091C103892B09F08CCF1092DD
:1020A000B60389CF8F3C49F447FFF0CF1092BE03AF
:1020B0008091BF038111ECCFE0CF803D19F414165D
:1020C000ACF3E4CF9091C003893D29F41916F4F6DE
:1020D0001092C003DBCF8A3D19F497FFD7CFF8CF1A
:1020E0009091C1038B3D29F497FFD0CF1092C1038B
:1020F000CDCF8C3D19F41916CCF3C8CF9FE2980FC1
:10210000983090F4815D990B21E030E0B90102C074
:10211000660F771F8A95E2F7CB0180959091BD03FA
:1021200089238093BD03B2CF8D3D31F48091B703F5
:102130008E7F8093B703AACF8E3D21F48091B703A1
:102140008D7FF7CF8F3D09F0A1CF8091B7038B7FB3
:10215000F0CFA1E0B0E0EFEAF0E10C944D308091D7
:10216000EA01882371F08091E8019091E9010196DC
:10217000811520E2920708F0C5C09093E901809391
:10218000E8018FEE682E81E0782ECC24C394D12C08
:10219000E12CFF24FA94FC0CF301419051903F0193
:1021A000129212925F01F3E0FF1609F4C5C0FF1509
:1021B00008F4B3C021E0F21609F4B8C082E0F816C2
:1021C00009F4B7C0849A8C988091EA01882309F4B5
:1021D000B9C08FE891E00197F1F700C0000080914D
:1021E000EA01912C812C811125C09FEF998304E68F
:1021F00010E021E030E0AE014F5F5F4F62E180E42C
:102200000E94AB2F21E0892B09F420E08091EA01A4
:10221000820F8093EA01898180950E94700A982F2D
:1022200096959C778370892B982E9594882E879409
:10223000882487944B9999C000E410E04A9998C08B
:10224000A0E2B0E04C9997C0E0E1F0E0369996C08A
:1022500068E070E04F9995C044E050E0669994C002
:1022600022E030E083B182958F7091E0892780FB76
:10227000222420F8312CC10188299929802B912B07
:102280008A2B9B2BE82BF92B6E2B7F2B462B572B66
:10229000242B352BF50131832083F3E0FF1609F45D
:1022A00088C0FF1508F473C021E0F21609F479C064
:1022B00082E0F81609F479C084988C988C9881E0B3
:1022C000F501208131812415350509F480E0E82AE3
:1022D000FFEFCF1ADF0A27E0C216D10409F059CF69
:1022E000EE2009F46EC081E08093ED010E949E0F04
:1022F0009093EC018093EB01E12C8E2D2196E2E18D
:102300000C9469301092E9011092E8011092EA01F0
:102310000E94F10A0E94010B34CF94E0F91679F083
:10232000E5E0FE124FCF229A2A984ECF859A8D98DB
:102330004BCF869A8E9848CF879A8F9845CF219A0F
:10234000299842CF61E070E00C2C01C0660F0A941E
:10235000EAF7609581E00E94C50A91E08927909193
:10236000EA01980F9093EA013ACF10E000E066CFBF
:10237000B0E0A0E067CFF0E0E0E068CF70E060E0C0
:1023800069CF50E040E06ACF30E020E06BCF94E0CE
:10239000F91699F0E5E0FE128FCF22982A982A9834
:1023A0008ECF85988D988D988ACF86988E988E98A6
:1023B00086CF87988F988F9882CF219829982998CF
:1023C0007ECF1091ED01112309F497CF8091EB019D
:1023D0009091EC010E948F0F059708F48ECF4CE08E
:1023E00050E06FEE71E08FE092E00E94AE30892BFA
:1023F00051F08CE0EFEEF1E0AFE0B2E001900D9231
:102400008A95E1F7E12E1092ED0177CF9091E501E9
:10241000292F282361F0809589238093E501882363
:1024200039F00E949E0F9093E4018093E301089598
:1024300090E080E0F8CFCF938091C603C091C503B0
:10244000C82B8091E501882309F10E949E0F2091FD
:10245000E3013091E401821B930B8838934110F023
:102460000E946A098091E501C82B80910E018823A2
:10247000B1F08091CF0387FF12C08EE12CE631E0EE
:1024800090E0815080F491110E946A098091AE031E
:1024900080958C239091AF03892BCF91089586E08E
:1024A00024E631E0EDCFF90141919F01442349F346
:1024B0009F5FE7CF80910E01882359F18091CF0370
:1024C00087FF27C00E941B1280936B0140E250E0FF
:1024D0006BEB71E08AE691E00E94AE30892BC1F08F
:1024E00080E2EAE6F1E0ABEBB1E001900D928A9573
:1024F000E1F7E091CB03F091CC03309749F086E00F
:1025000080936A010480F581E02D8AE691E00995C7
:1025100008950E941B128093620148E050E06BED29
:1025200071E082E691E00E94AE30892B89F388E069
:10253000E2E6F1E0ABEDB1E001900D928A95E1F7B2
:10254000E091CB03F091CC03309711F30280F3813B
:10255000E02D82E691E0DBCFCF93DF93EC014A855B
:102560005B856E857F850E942E068B810E94750992
:102570008C810E947C090E945A1286E0FE01119211
:102580008A95E9F7DF91CF910895CF93DF93EC011E
:102590008D8181FD17C082608D838091C5039B81F1
:1025A000892B8093C5038091C6039C81892B8093DE
:1025B000C6030E945A12488559856E857F85CE01D3
:1025C0000E942E061092C8031092C7038D8180FDD1
:1025D00003C0CE010E94AC12DF91CF9108951092FA
:1025E000C60380910E01882339F18091CF0387FFC4
:1025F00023C0ECE6F1E08EE1DF011D928A95E9F758
:1026000090E080E00E94FC0590E080E00E94D70509
:102610001092C5030E945A1286E0ECEBF3E0DF0152
:102620001D928A95E9F71092B5031092B6031092A5
:10263000B7030E94AA0F0895E4E6F1E086E0DCCF3C
:10264000AAE2B0E0E6E2F3E10C945C3085EE93E0C0
:102650002091F100DC012D93CD01B3E08D3E9B076D
:10266000B9F78091E603833009F472C0B8F4813081
:1026700009F449C0823009F4B3C08091E80083FFB7
:1026800096C28091E5039091E6039A3008F08FC2DC
:10269000E92FF0E0E25DFE4C0C9498308A3009F4AA
:1026A0008EC08B3009F471C0893039F78091E50311
:1026B000813219F78091E9039091EA03009711F0B4
:1026C0000297D9F68091E800877F8093E800809197
:1026D000E80082FF38C09091F3008091F2000297E9
:1026E00031F48091F100813011F0863021F4809135
:1026F000F1008093D8038091E8008B778093E80005
:102700000E944E04BACF8091E503813A09F0B5CF1B
:102710008091E800877F8093E8008091E9039091A1
:10272000EA03892B61F468E089ED93E070E00E9490
:10273000FA048091E8008B778093E8009ECF60E0F8
:1027400090E080E0F3CF8091E3038111C0CF95CF7B
:102750008091E503813A09F090CF8091E90390914F
:10276000EA03892B09F089CF8091E800877F809365
:10277000E8008091E80080FFFCCF80910E018093FB
:10278000F1008091E8008E77B9CF8091E503813226
:1027900009F073CF8091E9039091EA03892B09F046
:1027A0006CCF8091E800877F8093E8000E944E0400
:1027B0008091E70380930E010E94EF125ECF80911B
:1027C000E503813209F059CF8091E800877F80933B
:1027D000E8000E944E048091E8038093D7034DCF18
:1027E0008091E503813A09F048CF8091E800877F26
:1027F0008093E8008091E80080FFFCCF8091D703B0
:10280000BECF803899F0823809F0D1C18091E903B8
:102810008F70873008F0CBC18093E9008091EB0086
:1028200085FB882780F91092E90006C08091E103BA
:102830009091E203911182609091E800977F9093CC
:10284000E8008093F1001092F1008091E8008E770B
:10285000AAC1882309F498C1823009F0A8C18091E7
:10286000E70381119BC18091E9038F702FEF280F3F
:10287000263008F09CC18093E9002091EB0020FFF6
:102880008DC1933031F48091EB0080628093EB0036
:1028900085C19091EB0090619093EB0021E030E0D6
:1028A00001C0220F8A95EAF72093EA001092EA000D
:1028B0008091EB008860EACF811179C11091E70324
:1028C0001F778091E3008078812B8093E3008091D3
:1028D000E800877F8093E8000E944E048091E80022
:1028E00080FFFCCF8091E30080688093E30082E06A
:1028F000111183E08093E3035AC18058823008F0BD
:1029000056C12091E7033091E8032C3DE3E03E07F8
:10291000A1F583E08A838AE289834FB7F894DE01C8
:10292000139620E03EE051E2E32FF0E05093570091
:10293000E49120FF03C0E295EF703F5FEF708E2FB0
:1029400090E0EA30C0F0C7968D939D932F5F2431BD
:1029500059F74FBF8091E800877F8093E8006AE2D3
:1029600070E0CE0101960E94FA048091E8008B7716
:102970008093E8001CC1C096E7CF8091E903909155
:10298000EA03432F55274330510509F44AC078F52F
:102990004130510509F485C08BE590E0E8E1F6E0AF
:1029A0004230510509F003C12091E800277F2093B0
:1029B000E8002091EB033091EC038217930708F4B1
:1029C0009C0140E02115310509F070C041116EC035
:1029D0008091E80082FDC9CF8091E303882329F22A
:1029E000853019F28091E80083FFF2CFBECF4132EB
:1029F000510509F447C04232510509F0D8C083306F
:102A0000910508F0D4C0FC01EE0FFF1FED5AFE4FF8
:102A10000190F081E02D805B9E4FDC018C9190E075
:102A20001DC0332721303105E9F02115310579F03A
:102A300022303105F9F02330310509F0B8C0E5E85E
:102A4000F6E0E4918E2F90E0E5E8F6E007C0EBECCD
:102A5000F6E0E4918E2F90E0EBECF6E0009709F4BD
:102A6000A6C0A2CFE7EBF6E0E4918E2F90E0E7EB73
:102A7000F6E0F4CFE3EAF6E0E4918E2F90E0E3EAAB
:102A8000F6E0ECCF8330910508F091C0880F991FD4
:102A9000FC01E75AFE4F0190F081E02D89E090E0C3
:102AA00083CF82E190E0E3E7F6E07ECF8091E3031D
:102AB000882309F45ACF853009F457CF8091E80074
:102AC00083FD53CF8091E80082FD82CF8091E800A2
:102AD00080FF78CF9091F3008091F20021153105AD
:102AE00019F08830910550F041E0089709F040E076
:102AF0008091E8008E778093E80064CF4491409302
:102B0000F1003196215031090196E8CF803809F063
:102B10004EC08091E800877F8093E8008091E403B5
:102B20008093F10092CE811142C01091E7031230E0
:102B3000F0F58091E800877F8093E8001093E4032C
:102B40000E944E04112311F084E005C08091E3003F
:102B500087FDFACF81E08093E30342E061EC81E0FE
:102B60000E946D0442E261EC84E00E946D0442E246
:102B700061EC82E00E946D0442E260EC83E00E941E
:102B80006D048091E30313C08091E703813079F4F1
:102B900081E0933009F080E08093E2031092E90035
:102BA0008091E800877F8093E8000E944E04809126
:102BB000E80083FF0AC08091E800877F8093E800E7
:102BC0008091EB0080628093EB00AA96E3E00C9486
:102BD00078301F920F920FB60F9211242F933F93CC
:102BE0004F935F936F937F938F939F93AF93BF9315
:102BF000CF93DF93EF93FF93D091E900DF70809143
:102C0000EC00C82FC17080FDC0E81092E9008091EF
:102C1000F000877F8093F00078940E942013109238
:102C2000E9008091F00088608093F000CD2BCF7098
:102C3000C093E900FF91EF91DF91CF91BF91AF91E8
:102C40009F918F917F916F915F914F913F912F91C4
:102C50000F900FBE0F901F9018950E94EF122FEF4C
:102C600084E39CE0215080409040E1F700C00000E8
:102C700088E19AE00FB6F894A895809360000FBEA3
:102C800090936000FFCF882321F00E9475090E9475
:102C90005A120895882339F09091C503982B909388
:102CA000C5030E945A120895882321F00E947C09CE
:102CB0000E945A120895882339F09091C603982BE8
:102CC0009093C6030E945A120895882381F19CEFC5
:102CD000980F913A28F40E9478050E945A1208959C
:102CE00090E2980F983050F4877091E001C0990FEE
:102CF0008A95EAF7892F0E947C09EFCF9BE5980F10
:102D0000933028F490E080E00E94FC05089598E557
:102D1000980F9B3128F490E080E00E94D705089539
:102D200093E3980F933118F460E00E94D10F089557
:102D3000FF920F931F93CF93DF93F82E0091B3036D
:102D40001091B4030115110509F449C01092B203A2
:102D50001092B1031092AE031092AF03D8011696F1
:102D6000CD91DC919E013A9521153F4108F4D07E2A
:102D7000D1E0C11101C0D0E0D8011996ED91FC91CC
:102D80001A97309731F01B966D917C9180E00995F0
:102D9000D823DD2339F08CEF8C0F813A30F58C2F5E
:102DA0000E947805FF2099F0E091B303F091B403FD
:102DB000808584FD0CC08091B003882341F0808120
:102DC00091819C01215031092F333E47A0F00E9490
:102DD0005A121092B4031092B3031092B003C801B8
:102DE000CDB7DEB7E5E00C9476300E945A128C2FF6
:102DF0000E946516D7CF0E948406E9CFCF93C82FD3
:102E00008823B1F18CEF8C0F813AA0F580910E01EF
:102E1000882301F18091CF0387FF1CC0EC2FE6953A
:102E2000E695E695F0E0E659FE4F828190E04C2F62
:102E3000477021E030E002C0220F331F4A95E2F7CD
:102E400082239323892B79F08C2F0E9478050E948E
:102E50005A1209C0E4E6F1E08191C817A9F381E0B4
:102E6000EA36F807C9F78C2F0E94A3050E945A1270
:102E7000CF91089580E28C0F883068F4C77021E00C
:102E800030E001C0220FCA95EAF78091C603822B79
:102E90008093C603EBCFEBE5EC0FE33040F4F0E0BA
:102EA000E95EFE4F808190E00E94FC05E1CFE8E5FD
:102EB000EC0FEB3150F4F0E0EE0FFF1FE65EFE4F3B
:102EC000808191810E94D705D3CF83E38C0F83311A
:102ED00078F661E08C2F0E94D10FCACF1F93CF9359
:102EE000DF93182FEB010E94FE16209739F4812FF3
:102EF0000E946516DF91CF911F9108958FE99FE0A1
:102F00000197F1F700C000002197EFCFB0E0A0E0FB
:102F1000ECE8F7E10C9457306B01C42FD22FFC0181
:102F200085818823A9F04093C4030E949E0F90934B
:102F3000C3038093C203C77081E001C0880FCA95A4
:102F4000EAF70E945B16CDB7DEB7E8E00C94733069
:102F50001091C403141339C08091C2039091C3032C
:102F60000E948F0F7C01C6010E94970DE816F9069A
:102F700060F5C0E2CD0F1D17C1F080E2810F8830EF
:102F800048F4177081E0012E01C0880F0A94EAF717
:102F90000E945416C83048F481E09D2F977001C0FC
:102FA000880F9A95EAF70E945B1670E060E0802F28
:102FB0000E946E17C83038F6D77081E001C0880FC4
:102FC000DA95EAF70E945416BECFC77081E001C0BF
:102FD000880FCA95EAF7F6CFB0E0A0E0E2EFF7E19C
:102FE0000C945530EC018AE0A82E2881222309F4A4
:102FF000A6C0213009F049C08981813079F48E0161
:103000000E5F1F4F8A8170E060E0893311F460E544
:1030100070E00E946E17E8012196E7CF823039F404
:103020008E010E5F1F4F8A810E94FE16F4CF8330FF
:1030300039F48E010E5F1F4F8A810E946516EBCF17
:10304000843011F02196E8CF2A81229690E080E02A
:10305000AE014F5F5F4F2053330B2A30310550F0E4
:103060000097D1F2EFE9FFE03197F1F700C00000DF
:103070000197F6CFA89EB001A99E700D1124C90139
:10308000860F971F2981EA01E3CFE22FF0E0E1509C
:10309000F94FB490822F86958695869590E0FC0135
:1030A000E151F94FE4902770F12C022E02C0F59403
:1030B000E7940A94E2F7F1E0EF22FF24FC01E152E9
:1030C000F94FC490D12C022E02C0D594C7940A9413
:1030D000E2F731E0C322DD24FC01E153F94F049112
:1030E00010E002C0159507952A95E2F701701127A7
:1030F000E114F10419F081EE0E94FE16C114D1040E
:1031000019F086EE0E94FE1670E060E08B2D0E94A2
:103110006E17C114D10419F086EE0E946516E114F1
:10312000F10419F081EE0E9465160115110509F4EC
:1031300073CF70E060E08CE20E946E176DCFCDB768
:10314000DEB7EAE00C947130CF93DF93EC010E947C
:10315000880A9E01205E31092830310510F0209741
:1031600041F40E945B168C2F0E94FE16DF91CF91D6
:1031700008950E944A16F7CF9091D00392FF10C095
:1031800098E0899F90011124622B6093BA010E94FC
:10319000500A0E949E0F9093B9018093B801089540
:1031A0000E94500A0895AEE1B0E0E9EDF8E10C9418
:1031B0004D304B8B5C8B6D8B7E8B8F8B988F9111F1
:1031C0001092C503188A198A1A8A86E0FE0173963E
:1031D000DE011A9601900D928A95E1F78091D00355
:1031E00082FF1CC00E949E0F2091B8013091B9014E
:1031F000821B930B8838934120F08091BA0182FFA3
:10320000E9C10E949E0F2091E3013091E401821BED
:10321000930B8838934110F00E946A098E858823A9
:1032200089F061E0CE010A960E94970C6C018F85AF
:1032300040E5C4164CE7D40689F4882329F181E0DF
:1032400080930B010A851B852C853D854E855F8506
:10325000688979898A890E94D525C7C061E5C61623
:103260006CE7D60629F4882379F00E948926EACFF4
:1032700072E5C7167CE7D70639F4882329F08091D8
:103280000B018111F2CFDBCF81E1E82E83E0F82E34
:10329000512CB12CA12C88248394912CCE01019621
:1032A0009A8F898F44244394F70140815181662489
:1032B0006A94762C20E0822F90E0FC01EE0FFF1F35
:1032C000E40FF51F608171816115710531F0C6163B
:1032D000D70609F43C012F5FEECF10E0FFEF6F1629
:1032E0007F0609F443C0F701448110910B01812F3F
:1032F000411180E0182F1170F701358086819F857C
:10330000992309F4F3C0112309F4F0C0311014C05B
:10331000A401062C01C0440F0A94EAF7842B86838B
:1033200080910E0390910F03C29730F462E370E036
:1033300070930F0360930E03C40102C0880F991F9E
:103340002A95E2F70197F70126812817190671F4EB
:103350008091A0039091A103009709F44AC00E94B4
:103360008F0FC39708F445C0F7014482512AFFEF3D
:10337000AF1ABF0A27E0E20EF11C34E0A316B10435
:1033800009F092CF8F85882309F410C1552009F4E4
:103390000DC10E949E0F9093A1038093A003809182
:1033A0002D03883010F591E0980F90932D0399E04C
:1033B000FE013A96DE01119601900D929A95E1F781
:1033C0004DE0849FC0011124825D9C4F29E0FE01E5
:1033D0003196DC0101900D922A95E1F72FEF3FEF36
:1033E000FC0132872187D486C3866E96E2E10C9475
:1033F000693080919E0350919F03982FF0E0E0E0A8
:10340000851314C090939E03EE16FF0609F4AECF09
:1034100090E0FC01EE0FFF1FEA56FC4FB182A08244
:1034200001968370992780939F03A0CF282E312C7B
:10343000F101EE0FFF1FEA56FC4F20813181F7E0CA
:10344000F29FD001F39FB00D1124AF5EBC4F2D91C0
:103450003C9111973E8F2D8F40E020E030E0E32F2C
:10346000F0E0EE0FFF1F6D8D7E8DE60FF71F608081
:10347000718061147104E1F0F7010190F081E02D99
:10348000FC8FEB8F20E005C06616770609F4412F0C
:103490002F5FE22FF0E0EE0FFF1F6B8D7C8DE60FAC
:1034A000F71F608171816115710571F73F5FD7CF9B
:1034B0004423C9F0F701231708F0FD014482EE16FA
:1034C000FF0621F490939E03142F50CF981305C04C
:1034D000AE17BF0711F49F5F937091012F5F3F4FAD
:1034E000822F83708DCFF0E0E0E0F7CF90E03110D5
:1034F00020C0B40102C0660F771F2A95E2F79B0136
:10350000215031092817390731F4442309F44CC0FC
:10351000C5010E94F506C401062C01C0880F0A945B
:10352000EAF7982F9095F701868189238683132DDA
:103530001DCFAC01062C02C0559547950A94E2F7C1
:10354000BA01617077279C012150310982239323AE
:10355000892B31F5672B21F1F70182819381892B2A
:10356000E1F0E98DFA8D27E011922A95E9F70E94A2
:103570009E0F282F8B839C8334E03D83F70182814B
:103580009381782F8887998709811A813C8144E04B
:103590005E816F81892F0E94D525F7011582BBCFEF
:1035A000F42FF1703F2EB7CF312EB5CF90919E03FF
:1035B00080919F03981729F00E949826511015CFEB
:1035C00041CE0E9440261092A1031092A0030E94B7
:1035D0002307F4CF82E00E94390A13CEA6E0B0E0C0
:1035E000E4EFFAE10C945B308C0190931E0280931F
:1035F0001D02011580E21807C0F4802F0E94651695
:10360000C8010E94880A9801205E310928303105DE
:1036100018F00115110531F40E9454162696E4E0C5
:103620000C9477300E944316F9CF80EF89838A8308
:103630000E949E0F8160682F9C838B8349815A81F1
:103640007C8181E090E00E94D318E8CF0F931F9314
:10365000CF93DF938C01EB0163E272E08C2F0E9429
:10366000830D892B71F4DD27C15EDD4F8881F80160
:10367000128218828330F1F048F4813059F08230A0
:1036800081F0DF91CF911F910F9108958430B9F0AF
:103690008530B9F78091230290912402009789F335
:1036A00006C08091250290912602009799F30E940E
:1036B000EE1AE7CF8091270290912802F6CF8091F1
:1036C000290290912A02009791F7209123023091CC
:1036D0002402809125029091260221153105F1F2F4
:1036E000009729F7C901E3CFA6E0B0E0EAE7FBE1E4
:1036F0000C945D3090931E0280931D02811520E290
:10370000920730F40E94A4182696E2E00C947930D7
:1037100080EF89838A830E949E0F8160682F9C833B
:103720008B8349815A817C8181E091E00E94D3188A
:10373000EBCFCF93DF93EC010E94741BCE010E946C
:10374000EE1ADF91CF9108950F931F93CF93DF93DC
:103750008C01862F63E272E00E94830D892BB1F405
:10376000C0912302D0912402209781F0F801828138
:10377000833051F4CE010E94991BCE010E94991B07
:10378000CE010E94991B02C08430D0F7DF91CF9107
:103790001F910F9108950F931F93CF93DF938C0187
:1037A000EB0163E272E08C2F0E94830D892B09F0FC
:1037B0005CC0FE01FF27D80112968C911297E15E42
:1037C000FD4F8130B9F415969C9192FF02C0808321
:1037D0000AC090FFFCCF82E0808380912502909107
:1037E00026020097B9F48091230290912402009759
:1037F000E1F110C08230B9F515968C9182FD28C098
:1038000080FD0BC083E08083809127029091280285
:10381000009701F10E94741B28C084E0808380918E
:10382000290290912A020097A9F780912302909192
:1038300024020097F9F00E94991B80912502909133
:103840002602009739F78091230290912402E2CF5B
:1038500085E080838091230290912402009729F0D3
:103860000E94991BF0CF86E08083DF91CF911F915A
:103870000F9108958091250290912602B8CFA8E07B
:10388000B0E0E5E4FCE10C944D307C01DC011496E1
:103890008C91882309F465C161E0C7010E94970CEF
:1038A0008C01F7018581882331F18091C7039091C4
:1038B000C803009701F108171907E9F0FC01FF2779
:1038C0008C7F9927892B09F069C0A4E0EE0FFF1FB8
:1038D000AA95E1F7E35DFD4F8581846085831183BF
:1038E0000083CF010E94C5121092C50361E0C70199
:1038F0000E94970C8C01D70115968C91882309F4AE
:10390000BBC0C80197578038910508F0E8C0D02E99
:10391000BFE0B01708F415C18FEF93E00E94D230DA
:1039200081110FC108E613E0D1103BC0E4E04E2E38
:103930009E012F5F3F4F390133243A94D301E42D88
:103940001D92EA95E9F76801FFEFCF1ADF0AC80177
:103950000E94D2308983882309F4F3C08130D1F4E6
:10396000580122E0A20EB11CC6010E94D230582E8E
:103970008A83882309F4E5C08FEF850D8330F8F43E
:10398000680133E0C30ED11CC5010E94D2308B8385
:103990008823F1F1C3010E94EC173AC0F0E0E0E0A7
:1039A0009BCF0115E4E01E0709F4CBC0C8010E94BB
:1039B000D230811101C0DA940F5F1F4FB5CF8BEF6A
:1039C000850D833068F5480143E0840E911CC501E4
:1039D0000E94D2308B8364018823D1F0680154E0C7
:1039E000C50ED11CC4010E94D2308C83882381F083
:1039F0008B819C818130AFEF9A0710F0982F882738
:103A0000B6E05B1639F0E7E05E1639F00E94991BCC
:103A1000860194CF0E94741BFBCF0E94EE1AF8CF50
:103A2000F4E065015F12F4CFC5010E94D230B82ED8
:103A3000680124E0C20ED11CC80103960E94D23056
:103A4000BB2009F47EC0882309F47BC0482F415075
:103A5000550B349EC001359E900D1124AB2DA15005
:103A6000BB0B8A0F9B1F019798F2EFE9FFE031979C
:103A7000F1F700C00000F7CF680127E5D21A3FEF49
:103A8000C316D10409F058F563E272E08C2D0E9450
:103A9000830D892B21F5C60164E0880F991F6A9573
:103AA000E1F7FC01E35DFD4F22812130A1F520917A
:103AB000230230912402232B91F020912502309192
:103AC0002602232B61F02091270230912802409199
:103AD000290250912A02242B352B232B21F1D701C7
:103AE00015965C90552009F440C00E35BCE71B07C5
:103AF00029F10F35ECE71E0741F00D35FCE71F07F4
:103B0000A1F5809100018823C9F01092000180E0A6
:103B10000E94981616C0223011F72091270230918A
:103B20002802232BE1F2FC01EE5CFD4F20812E7F69
:103B30002083835D9D4F0E94C512D1CF81E0809389
:103B400000018091BA01877061F0D70115968C91C0
:103B5000882339F08091D00382FF03C082E00E9465
:103B6000390A2896E2E10C9469308091000188239B
:103B700009F450C4380120EE621A71084090E50142
:103B80008091B701482A8091C603482A38E063161D
:103B9000710408F087C098012770332781E090E016
:103BA00001C0880F2A95EAF7552009F478C0482A01
:103BB000D7018D919C910E949E0921E030E019016E
:103BC00002C0220C331C8A95E2F7E091B303F09116
:103BD000B403FE83ED8320918A0130918B013887F5
:103BE0002F8356E9C52E52E0D52EB12CA12CB8E07A
:103BF000AB16B10409F46FC4411005C0D60112968A
:103C00008C91811189C0F601838190E082219321FA
:103C1000892B09F481C08085982F977009F487E07B
:103C2000F8E06F16710408F057C0552009F450C031
:103C300086958170882309F46FC0D6018D909C9081
:103C40000815190519F4552009F466C0ED81FE81A7
:103C5000EC15FD0509F460C0D6011D96ED91FC91AF
:103C6000309721F08081882309F456C0642DC60165
:103C70000E94D506882309F44FC00815190509F0DC
:103C800085C40115110509F486C4511086C4EF815D
:103C9000F8858E169F0609F03FC0512C7EC4809592
:103CA000482286CF552009F4FFC310938B0100935F
:103CB0008A010E946C056093AA037093AB03809302
:103CC000AC039093AD031092B2031092B10370CF86
:103CD00082FB882780F9AECF5520F1F08170AACF02
:103CE0000E9465167FC40497813A910548F48C2D93
:103CF0000E94A305552009F48DC30E945A1221CFBA
:103D00000E945A128FE39CE90197F1F700C000006E
:103D10008C2D0E94FE16EECF9FEFA91AB90AAFE0D4
:103D2000CA0ED11C64CFDC012D913C910217130700
:103D300009F06AC351106AC31092B00380E00E9478
:103D4000981668C3902F812FAAC3F9014485558521
:103D500066857785C9010E942E06D60115968C913D
:103D600081FFCDC3C6010E94AC128091C703909120
:103D7000C8030817190709F0C2C31092C8031092AC
:103D8000C703BDC306E221EE41EE6AE17CE7C7014D
:103D90000E948617D6CE07E225EE45EE6BE17CE762
:103DA000F6CF06E221EE40EE68E17CE7F0CF07E2D5
:103DB00025EE44EE69E17CE7EACF06E221EE42EE31
:103DC0006CE17CE7E4CF07E225EE46EE6DE17CE7AF
:103DD000DECF08E221E045EE6EE17CE7D8CF8091AE
:103DE000CF0381608093CF0395C08091D00388601A
:103DF0008093D0038FC08091CF038260F3CF8091F6
:103E0000CF038460EFCF8091CF038860EBCF8091A8
:103E1000D0038160EDCF8091D0038260E9CF8091A3
:103E2000CF038061DFCF8091CF038062DBCF8091B1
:103E3000CF038064D7CF0E94EF128091CF038068B8
:103E4000D1CF8091CF038C60CDCF8091D0038360A0
:103E5000CFCF8091CF038E7FC5CF8091D003877F56
:103E6000C7CF8091CF038D7FBDCF8091CF038B7F54
:103E7000B9CF8091CF03877FB5CF8091D0038E7F5C
:103E8000B7CF8091D0038D7FB3CF8091CF038F7E4A
:103E9000A9CF8091CF038F7DA5CF8091CF038F7B5A
:103EA000A1CF0E94EF128091CF038F779BCF80919B
:103EB000CF03837F97CF8091D0038C7F99CF809160
:103EC000CF0382FB992790F921E0922790FB82F99A
:103ED00090FB83F987CF8091D003982F90959170B4
:103EE0008E7F892B90FB81F983CF9091CF03892F0F
:103EF0008F7B96FF806476CF0E94EF129091CF0364
:103F0000892F97FB87F980586DCF61E08EE090E0B4
:103F10000E94F0306091CF037091D00384E090E074
:103F20000E940E310E94EF120CCE60E0EFCF909114
:103F3000CF03892F8F7E94FF806154CF9091CF0360
:103F4000892F8E7F90FF81604DCF9091D003892F74
:103F5000877F93FF88604CCF85E308C385E313C355
:103F600081E00E94500A43E062E081E00E940C0A76
:103F7000E8CD81E00E942C0AF6CF82E0F2CF0B352B
:103F80005CE7150749F10C358CE71807D9F00A35BD
:103F90001C4709F095C381E01CC00E94EF12AFEFEF
:103FA000B4E3ECE0A150B040E040E1F700C0000015
:103FB0000E945B056FEF7FEF90E080E00E940E3182
:103FC0000E942D168091D00382FB882780F991E012
:103FD00089270E947B0E74C380E0FBCF858100811E
:103FE0001181882369F0C8010E94310CD82E682FF6
:103FF000C8010E94D209B8018D2D0E94140C66C31D
:10400000C8010E949E09D82EF6CF212F2F70D22EE4
:10401000107F19F0D29490EFD922CC20B9F0DD2096
:1040200069F080E2800F883010F0011109C08091A2
:10403000C603D82AD092C6030E945A12802F40C0CD
:104040008091C503D82AD092C503F6CF802F0E9455
:104050006516DD20B9F180E2800F883010F0011183
:1040600004C08D2D0E947C0903C08D2D0E9475090E
:104070000E945A1227C0312F3F70D32E107F10326A
:1040800019F0D29480EFD822002351F0013009F4C6
:1040900089C0CC2009F495C0BB2009F443C0CECF21
:1040A0008091D00382FD3AC0CC2091F1DD2039F01F
:1040B0008091C603D82AD092C6030E945A1280E08B
:1040C0000E94FE16E92DE850FF0B349720F40E9461
:1040D00021060E945F0AAA20B1F08091BA0180FDFA
:1040E00012C0D70115961C928695869586950E94DA
:1040F000500AC7010E943F1C8091BA01869586959F
:1041000086950E942C0A60E0C7010E94970C29CD79
:1041100080E00E946516DD20A9F2A3CFCC2069F1D2
:10412000B11004C08D2D0E945B16CCCF41E0B412BB
:1041300010C01091E5018D2D8123D81619F20E942F
:104140009E0F9093E4018093E301D12AD092E50180
:10415000B9CF55E0B512B6CF8D2D0E945B168D2DCF
:104160000E9406128091B7019D2D9823D91609F45B
:10417000A9CFD82AD092B701A5CFB1100AC08D2DF2
:104180000E9454168D2D0E9406128D2D0E948A09C0
:1041900099CF81E0B81296CF8091C6038D2109F4A2
:1041A00091CFEDCFCC2029F095E09B1508F48ACF74
:1041B000B9CFA4E0AB1508F485CF8D2D0E9454161D
:1041C00081CFBB20D1F3093349F4BFEFE7EEF3E031
:1041D000B150E040F040E1F700C00000802F0E94A5
:1041E000651670CF812F86958695837061F081303A
:1041F00009F068CFC8019370C11002C080E090E060
:104200000E94D7055FCFC8019370C11002C080E043
:1042100090E00E94FC0556CF6C2D802F0E94D10F9C
:1042200051CF812F837089F5C1104CCF402F42951B
:1042300046954770440F440F802F8F70042E01C0A5
:10424000880F0A94EAF7202F207104FF07C02FE09F
:1042500030E001C0220F4A95EAF720951695169591
:104260001370123069F050F43091FB01113029F0D5
:10427000822B83230E945C0A25CF832B822BFACFCB
:10428000282B8091FB018227F5CF8695CC2011F059
:10429000812F8170882309F415CF402F42954695D0
:1042A0004770440F440F802F8F70042E01C0880F79
:1042B0000A94EAF7202F207104FF07C02FE030E0B6
:1042C00001C0220F4A95EAF72095169516951370AE
:1042D000123069F050F43091FC01113029F0822B3A
:1042E00083230E94090AEECE832B822BFACF282B40
:1042F0008091FC018227F5CF1F70CC2029F0812FFF
:104300000E94500A802F0FCF802F0E945416812FB9
:104310000E942C0AD7CE023F89F160F4003FB9F029
:10432000013F81F0CC2009F45FC0B11087CE812F0E
:104330008F7128C0033F49F1043FA1F78091D0035A
:1043400082FD2FC0812F8F71CC2011F31BC0CC2098
:1043500081F024E02B1508F4B5CE1F7181E090E0C8
:10436000012E01C0880F0A94EAF79091FC01892779
:10437000B8CF35E03B1508F4A5CEEFCF812F8F7174
:10438000C110C6CF0E94500A9DCE80E0CC2009F417
:10439000A8CF1F7181E0012E01C0880F0A94EAF7AF
:1043A000A0CFCC20B1F08091BA018770843041F465
:1043B0000E948309812F8F710E942C0AA12C82CE2A
:1043C00044E063E04B15D0F3812F8F710E94BC183D
:1043D000F5CF54E05B1520F40E94830964E0F4CF2C
:1043E00081E00E94390AEACFBB2059F0093309F075
:1043F000F5CE8FEF97EEA3E081509040A040E1F71B
:10440000EBCE812F8F7184CF552021F0FC01808568
:1044100085FF94CCC80197558F3F910511F008F0A6
:104420008BC0C8018C7F9927892B09F08ACBF801B2
:10443000FF2744E0EE0FFF1F4A95E1F79F01235D40
:104440003D4F6901D70115968C91EE5CFD4F90812F
:1044500080FB90F99083882309F477CC0E949E0F0B
:1044600090930B0280930A02F60182818F5F828310
:104470008091C5039091C603892B83838091E501C8
:1044800084834681578166857785C6010E942E0602
:10449000D60115968C9181FF55CC90E080E09093E9
:1044A000C7038093C8032BC080918A0190918B0130
:1044B0000817190781F410928B0110928A0110924B
:1044C000AA031092AB031092AC031092AD031092AA
:1044D000B2031092B1038091B3039091B40300979B
:1044E00009F498CFE8E06E16710408F01CCC642D36
:1044F0000E94D506811103C081E00E949816F70141
:1045000085818823B1F11092C403C8019057839725
:10451000E8F484E090E00E94DA309093D003809336
:10452000CF03F801E150F047E232F10508F057CC33
:10453000E85CFE4C0C949830F801E851FC47E730F9
:10454000F105E8F6E65AFE4C0C9498300631BCE7CB
:104550001B0709F09BC08091C6038A7A91E009F499
:1045600090E090938C018111F7CC89E20E94A30521
:10457000C4CB0631ECE71E0709F07CC080918C01AA
:104580008111ECCC89E20E947805B7CB81149104AB
:1045900009F07DCB512C912C812C80E00E94981643
:1045A000D092B403C092B30381E08093B0038FE054
:1045B0008A9DF0018B9DF00D1124EA56FD4F8581F7
:1045C0008093AE0351100EC08114910459F0808184
:1045D00091819C0124503109213A310508F080CBAA
:1045E0000E9478058FE08A9DF0018B9DF00D1124CB
:1045F000EA56FD4FC680D780C6019A9581159F4126
:1046000010F420EED22299249394C60101978F339F
:104610009E4708F0912C8FE08A9DD0018B9DB00DB4
:104620001124AA56BD4F1996ED91FC911A97309717
:1046300031F01B966D917C9181E00995982299202B
:10464000B1F08FE08A9DF0018B9DF00D1124EA56A8
:10465000FD4F868197810E94880A8093AF03C6012F
:1046600048E06416710408F03ECB0E9484060E9464
:104670005A1240CB0737FCE71F0709F47ACC82E0D7
:1046800008372CE7120709F475CC1AC007373CE746
:10469000130709F465CC08374CE7140709F46DCC0F
:1046A0000330FCE71F0709F485CC08F068CC01153E
:1046B0003CE7130709F471CC01301C4709F480CCA6
:1046C000F70187819085009709F488CC0E944C08F7
:1046D0008C01F701C580B680B2943FE0B32280918F
:1046E000BA01877001F1AC2CCC20F1F0812F807FD2
:1046F000803461F080E2800F8830A8F0812F807EC6
:10470000803221F4023078F0BB2069F08091D00330
:1047100082FF09C082E00E94390A8091BA01877045
:10472000AA24A3948111A12C912E92942FE092227D
:10473000FBE0F91508F4C6CCE92DF0E0EF59FE4C8A
:104740000C949830B0E0A0E0E8EAF3E20C94583022
:104750008091B401807F09F051C08091B30188231A
:1047600009F44CC0E091360489E0D82E8091ED0325
:104770008E1709F443C00E2F10E0ED9DF0011124B7
:10478000E251FC4F84818823F1F1D09EE001D19E5B
:10479000D00D1124FE01E251FC4F91818091AF01B7
:1047A000981331C090818091AE0198132CC08581FF
:1047B000811129C0E280F3808091B0019091B10114
:1047C000E81AF90A60E08EEA91E00E94970C0E94D4
:1047D000970DE816F906B8F48091B4018F708061E6
:1047E0008093B401CC50DC4F88818F7080618883C6
:1047F0008EEA91E00E943F1C0E949409CDB7DEB77B
:10480000E7E00C947430F8013196E770AFCFA8E17F
:10481000B0E0EDE0F4E20C9450308C0186E0F80159
:10482000DE01539601900D928A95E1F7F801F4802C
:10483000E5808EEA882E81E0982E8091B201811168
:104840002AC0F11003C0FF24F3941CC0EE20F9F03D
:10485000C8010E946D0CF82E8823C9F089E0F80188
:10486000AEEAB1E001900D928A95E1F78091B20134
:10487000813031F48091AE019091AF010E94600CC3
:104880000E94A2238F2D6896EFE00C946C30C80133
:104890000E943F1CD8CFC280D380B090B3018091DA
:1048A000B0019091B1013601681A790ABB2009F470
:1048B00020C15080A18060E08EEA91E00E94970CB8
:1048C0000E94970D6816790608F0BDC0FF2009F414
:1048D000BACF8091B401382F307F2091AF01F80119
:1048E0009181311161C0FE2C29131DC02091AE01B0
:1048F0009081291318C04091B5015091B6012781CC
:1049000030854217530779F4E11047C08F708061FA
:104910008093B4018EEA91E00E943F1C8091B40123
:10492000F8018683AFCFE11038C06A2D852D0E9433
:10493000DF036A2D852D0E94DF03E82E8111A2CFAF
:104940005B8AAC8A8B899C890E94600C292F2295F6
:104950002F70243058F49F70223088F0992399F0FA
:10496000F8019681907F79F4FE2C8CCF2A5F2F700E
:10497000223068F0C8010E943F1CEB2CF5CF992330
:1049800011F0882389F3805E883070F3F3CF803F85
:1049900058F3815F833070F7E7CF8091B401816075
:1049A0008093B401F12C6ECF29131EC02091AE016B
:1049B0009081291319C04091B5015091B60127810A
:1049C00030854217530781F4E1100EC08683C80179
:1049D0000E943F1C89E0F801AEEAB1E001900D921F
:1049E0008A95E1F7FB2C4ECFC8010E946D0C8823FD
:1049F00009F44DCFEE2009F44ACF8091B401803202
:104A0000B8F02091AE013091AF013B872A87DD8657
:104A1000CC869091B2019E871F86888B8091B501CC
:104A20009091B6019A8B898BCE010A960E943F1C09
:104A300089E0F801AEEAB1E001900D928A95E1F7C4
:104A40000E94A22300CF8091B401982F907F51F44F
:104A50008EEA91E00E943F1C89E0F40111928A9550
:104A6000E9F7A0CFFF2009F4EECE2091AF01F801C5
:104A7000918129131AC02091AE019081291315C08C
:104A80004091B5015091B6012781308542175307F7
:104A900061F4E1100AC08683C8010E943F1C89E0CE
:104AA000F40111928A95E9F79DCFC8010E946D0C1F
:104AB000882309F4ECCEEE2009F4E9CE8091B4010C
:104AC000803208F4B5CF2091AE013091AF013A8326
:104AD0002983DC82CB829091B2019D831E828F83D9
:104AE0008091B5019091B60199878887CE01019692
:104AF0009DCF60E08EEA91E00E94970C0E94970D96
:104B00006816790608F0A8CFFF2009F49CCEFE2C89
:104B1000EE2009F4BCCE9091AF01F8018181981389
:104B200036C09091AE018081981331C02091B501BB
:104B30003091B601878190852817390741F580911A
:104B4000B0019091B101C81AD90AF8ECCF16D1047E
:104B5000A8F49091B40190FD11C0907F79F08091FC
:104B6000B401F8018683903F31F0982F907F905FD9
:104B70008F70892B8683C8010E943F1C89E0F80151
:104B8000AEEAB1E001900D928A95E1F77BCEC801C3
:104B90000E946D0C81114CCF8091B4018160809393
:104BA000B401C8010E943F1C6DCEA2E1B0E0EBED64
:104BB000F5E20C945B300A871B872C873D874E8774
:104BC0005F87688B798B8A8BCE010A960E940724B7
:104BD00081110CC089E0FE013A96DE011196019028
:104BE0000D928A95E1F78E8581110BC019E08091B5
:104BF00036049091ED03891331C06296E4E00C9481
:104C000077302091ED0330E0C90101968770992734
:104C1000409136044817190699F099E0929FD00107
:104C2000939FB00D1124A251BC4FFE01319601900B
:104C30000D929A95E1F78093ED030E949409D6CFE7
:104C40000E94EF121092ED031092360489E0EEEA12
:104C5000F1E0DF011D928A95E9F7C8CF819FC0017D
:104C6000112482519C4F0E940724882331F28091A5
:104C7000360490E001968770992780933604B7CF69
:104C8000EF92FF920F931F93CF93DF9380912D03A9
:104C9000882361F0E09110038DE0F82E80912D03C0
:104CA000E81748F010922D0310921003CDB7DEB72D
:104CB000E6E00C947530EE24E394EE0EE0921003DF
:104CC000CE2FD0E0EF9DF0011124E25DFC4F8481F6
:104CD0008823E9F087819085892B21F4818592854D
:104CE000019659F4008111812281338144815581DB
:104CF0006681778180850E94D525FC9EF001FD9E0E
:104D0000F00D1124E25DFC4F14821092C503EE2DCC
:104D1000C5CF1092A1031092A00310920B018091B5
:104D20009F0380939E030E9423070E9440260895BC
:104D3000B0E0A0E0EEE9F6E20C944E30C0919E03A4
:104D400097E0992E01E010E02DE0322E34E0432E62
:104D50005524539480919F038C1309C00E944026D0
:104D60000E942307CDB7DEB7E1E10C946A30D0E0B2
:104D7000FE01EE0FFF1FEA56FC4F80819181989E45
:104D8000D001999EB00D1124AF5EBC4F14962C91AA
:104D90001497211159C060902D03EEE2F3E030E04A
:104DA00020E0812C5D01261508F04CC0E384F484DA
:104DB000D501CD90DC906FEF7FEF712C472D50E047
:104DC000DA01AA0FBB1FAC0DBD1D0D90BC91A02D2B
:104DD000109731F0EA16FB0609F4BA017394EECF8E
:104DE0006F3F7607A9F1D80102C0AA0FBB1F6A95D1
:104DF000E2F78A2AB801072C02C0660F771F0A94CF
:104E0000E2F7AB01415051098416150601F5329EB7
:104E1000F001339EF00D1124E25DFC4F989ED0010D
:104E2000999EB00D1124AF5EBC4F12962D913C910E
:104E3000139730872783448210821182928781875B
:104E400015965C920E94F5062196C37083CF14825A
:104E50002F5F3F4F3D96A7CFA6E0B0E0E2E3F7E239
:104E60000C945B300E949E0F8C018091E601909122
:104E7000E7018017910781F019821A820E949E0F24
:104E8000682F49815A81792F80E090E00E94D318E1
:104E90001093E7010093E6012696E4E00C94773046
:104EA0001F921FB61F9211248F939F93AF93BF93AE
:104EB0008091D103811113C08091D2039091D303CB
:104EC000A091D403B091D5034196A11DB11D80934B
:104ED000D2039093D303A093D403B093D503BF918F
:104EE000AF919F918F911F901FBE1F901895CDB7C6
:104EF000DEB7E4970FB6F894DEBF0FBECDBF85B71F
:104F0000806885BF85B7806885BF84B7877F84BF89
:104F10000FB6F894A8958091600088618093600036
:104F2000109260000FBE80E890E00FB6F894809376
:104F30006100909361000FBE89E597E09093610155
:104F4000809360010E9434070E94370E0E94B30DC7
:104F50000E94FE030E949F048091E200846080937F
:104F6000E20078948091E3038823A1F01091E90096
:104F70001F709091EC00892F817090FD80E8182BB4
:104F80001092E9008091E80083FD0E9420131F70B9
:104F90001093E90082E084BD93E095BD9AEF97BD40
:104FA00080936E000E94CC0B811102C00E94730D91
:104FB0008091EE0181110EC00E94E72E2FEF33ED9C
:104FC00040E3215030404040E1F700C0000081E064
:104FD0008093EE012198299822982A9884988C9899
:104FE00085988D9886988E9887988F9829982A9872
:104FF0008C988D988E988F980E94F10A6E98769A68
:1050000052985A9A53985B9A54985C9A57985F9A18
:105010003E98469A24982C9A0E94010BEFEEF1E0FC
:10502000AFE0B2E0119211921D921D9281E0EB3F30
:10503000F807C1F790E080E00E94DA30853E9E4F8D
:1050400021F40E94CC0B811163C065EE7EEF90E0ED
:1050500080E00E940E3160E082E090E00E94F0303B
:1050600081E08093FB0161E083E090E00E94F030FA
:1050700060E074E184E090E00E940E3160E086E040
:1050800090E00E94F03060E087E090E00E94F03015
:1050900040E050E0BA0188E090E00E94023160E018
:1050A00083E290E00E94F03060E08CE090E00E94AB
:1050B000F03060E08DE090E00E94F03019821A82BA
:1050C0001B821C821D821E821F82188648E050E0CF
:1050D00067E170E0CE0101960E94E03040E050E0D0
:1050E000BA018FE190E00E94023180E00E947D0BC6
:1050F0000E94730D40E050E0BA018FE090E00E9402
:10510000023140E050E0BA0183E190E00E940231B8
:1051100082E090E00E94D2308093FD0184E090E034
:105120000E94DA309093D0038093CF030E94A9109D
:10513000FFEF26E731E0F15020403040E1F700C0BA
:1051400000000E94A91080910F0280FF08C06FEF3D
:105150007FEF90E080E00E940E310E945B0583E0CB
:1051600090E00E94D2300E945C0A259A2D98269ADF
:105170002E98239A2B980E94C20A0E94BF0A0E946E
:10518000BC0A0E94B90A559A5D984FEF80E792E0F9
:10519000415080409040E1F700C00000259A2D9AD0
:1051A000EFEFF0E722E0E150F0402040E1F700C0EF
:1051B0000000269A2E9A3FEF40E782E031504040AF
:1051C0008040E1F700C00000239A2B9A9FEFE0E7B0
:1051D000F2E09150E040F040E1F700C000000E9492
:1051E000C20A2FEF30E742E0215030404040E1F763
:1051F00000C000000E94BF0A8FEF90E7E2E08150FC
:105200009040E040E1F700C000000E94BC0AFFEFC0
:1052100020E732E0F15020403040E1F700C00000CC
:105220000E94B90A0E94C20A0E94BF0A0E94BC0AD8
:105230000E94B90A81E091E09093CC038093CB0364
:10524000A0E15A2EB2E12B2EBB24B394AA24A3943E
:105250008E010F5F1F4F3E0143E0640E711C809171
:10526000E303F0E4FF2E853009F494C00E94A910F6
:10527000EEEF8E2EE1E09E2EAFE0B2E0F401219140
:1052800031918D919D9142E0EA30F40709F48EC08E
:1052900028173907A1F38FE092E09AAB89AB412C34
:1052A000E9A9FAA9E190F190FAABE9ABF401819197
:1052B00091914F018E159F0579F19C012E253F2577
:1052C0003CAB2BAB312CCC24C394D12C8BA99CA907
:1052D0008C219D21892BB1F03BA64CA60E949E0FEC
:1052E0009EA78DA7AFA691E097012C213D21232BEE
:1052F00009F490E098AB4BA55CA56DA57EA58FA5A4
:105300000E94D3183394CC0CDD1C3EE03312DECF68
:10531000F4013297F182E082439446E04412C0CF18
:105320000E946C0549C08091E303843031F180E034
:105330000E945F0A1092D10388E190E00FB6F894C2
:10534000A895809360000FBEF092600083B7817FC4
:10535000846083BF83B7816083BF7894889583B767
:105360008E7F83BF0FB6F894A89580916000886106
:1053700080936000109260000FBE0E94A910EFE0C1
:10538000F2E081919191892B09F09CC492E0EB317C
:10539000F907B9F78091E303853009F4C4CF0E947F
:1053A000EF120E9421060E945F0A60CF281739077A
:1053B00009F0B4C10E942C278091B1039091B203EF
:1053C000892B09F43EC04091A6035091A703609138
:1053D000A8037091A9032FB7F8948091D2039091FC
:1053E000D303A091D403B091D5032FBF841B950B99
:1053F000A60BB70B4091A2035091A3036091A403A5
:105400007091A50384179507A607B707D0F0809180
:10541000B1039091B2030E94A4181092B2031092AB
:10542000B1031092A6031092A7031092A803109242
:10543000A9031092A2031092A3031092A403109246
:10544000A503C090C703D090C803C114D10421F1B3
:1054500080910A0290910B020E948F0F7C01C6017D
:105460000E94970D8E159F05B8F42091C7033091C7
:10547000C803C90199272C7F3327232B09F053C177
:1054800054E0880F991F5A95E1F7835D9D4FFC0109
:10549000258122FF0E94C51280910B01882301F112
:1054A0008091A0039091A1030097D1F00E948F0FEB
:1054B00020910E0330910F032817390788F490913B
:1054C0009E0380919F03981709F430C10E9498268B
:1054D00010920F0310920E031092A1031092A003DA
:1054E00086E0ECEBF3E0D80101900D928A95E1F7AC
:1054F0008090BD03D090BE03F090BF03C090C00366
:10550000E090C1031092BE031092BF031092C0033B
:105510001092C1038F2D8D2909F445C08091BA03E3
:105520009091BB030E948F0F9C019091B50399232A
:1055300009F4F6C325313105B0F19F3F19F09F5FA3
:105540009093B503DD2059F00E9456069FEF1D147D
:105550000CF491E0899F802D11248093BE03FF20DD
:1055600059F00E94560691E01F140CF09FEF899F9E
:10557000802D11248093BF038091BE03882399F06E
:105580009090BF03992079F00E947606882309F451
:10559000D6C08093BE03892D0E947606882309F425
:1055A000D1C08093BF038E2D8C2909F445C0809112
:1055B000B8039091B9030E948F0F9C019091B6039C
:1055C000992309F4A8C321353105B0F19F3F19F0A3
:1055D0009F5F9093B603CC2059F00E9434069FEF52
:1055E0001C140CF491E0899F802D11248093C0033A
:1055F000EE2059F00E94340691E01E140CF09FEF4B
:10560000899F802D11248093C1038091C00388233A
:1056100099F0C090C103CC2079F00E9476068823CF
:1056200009F493C08093C0038C2D0E9476068823D2
:1056300009F48EC08093C1038091BD03881117C007
:105640008091BE03882311F08D1111C02091BF03FA
:10565000222311F02F110BC09091C103992311F057
:105660009E1105C03091C003332309F446C30E9444
:10567000AA0F86E0F801ACEBB3E001900D928A9599
:10568000E1F70E942106F82E80910C02F81639F0FD
:10569000F0920C020E946C058F2D0E945F0A80918F
:1056A000E303843009F0DBCD83E08093E90080914F
:1056B000E80082FFD4CD8091E80090E085FF0AC029
:1056C0000E941D0440E2C42ED12C7801882309F4E5
:1056D0004CC091E08091E8008B778093E80099239B
:1056E00009F4BDCDE0901B02F0901C028981E11409
:1056F000F10409F448C08E3F09F088C08A818330E4
:1057000020F08550833008F081C0EA81EE3008F047
:105710007DC0F0E0E359FE4C0C949830EFE0F2E0ED
:10572000FAABE9ABBCCD90E080E0B1CE0E94402660
:105730001092A1031092A0030E942307D1CEB09231
:10574000BE0329CFB092BF032ECFB092C0036CCF5F
:10575000B092C10371CF8091F100F70181937F0175
:10576000F1E0CF1AD10809F4B4CF8091E80085FDAB
:10577000F2CF8091E8008B778093E8000E941D04AF
:10578000882399F3A6CF8D3009F487C0B8F484300C
:1057900009F46AC048F4823049F108F056C08130FB
:1057A00009F18FEF898332C0863009F473C008F4A1
:1057B00066C08C30B1F730E13A8328C0813109F4FA
:1057C000C3C040F48F3009F493C008F469C00E944C
:1057D000960B1CC0833109F4E2C008F4B8C08E3FB8
:1057E00001F793CF1A8289E08B8310C08A818230BF
:1057F00009F488C2833089F0813099F60E946C05E3
:105800000E949E306B837C838D839E8340E250E0B8
:10581000B80182E00E94190B22CD80910C01909179
:105820000D01892B99F3D801EFE0F2E0808191819D
:10583000329612969C93129713968C931397129606
:1058400022E0EB31F20791F7E1CF8A81823009F053
:10585000A8CF6B817C818D819E810E949E3087E2E2
:1058600090E00E94F030D2CF4C816B818A810E94FF
:10587000E50B9827892798279E838D83C7CF2D8195
:105880003E813227232732274C816B818A810E94F7
:10589000A60BBCCF0E94C70CB9CF1A8288E9A4CF4F
:1058A000EC80F12C4DE1E416F10408F0AFCFCA8092
:1058B000DB80DC24CD24DC244801E00EF11EC6018F
:1058C00088599C4FE814F90409F4A0CFE8E9CE16F2
:1058D000D10458F40E94D230F4018483FFEFCF1A30
:1058E000DF0A2FEF821A920AEACFF4011482F6CF70
:1058F00080910C0190910D01892B09F487CFCC8008
:10590000D12C3DE1C316D10408F080CFEA80FB80A2
:10591000FE24EF24FE244801CE0CDF1CC701885969
:105920009C4FCE14DF0409F471CF48E9E416F1046A
:1059300020F4F40164810E94F030FFEF8F1A9F0A77
:105940002FEFE21AF20AEACF84E08A835FCFEC807D
:10595000F12C3DE1E316F10408F058CFCA80DB805A
:10596000DC24CD24DC244801E00EF11EC60188961B
:105970008E149F0409F44ACF40EAC41642E0D406CC
:1059800058F40E94D230F4018483FFEFCF1ADF0A6B
:105990002FEF821A920AEACFF4011482F6CFCC805C
:1059A000D12C3DE1C316D10408F030CFEA80FB8052
:1059B000FE24EF24FE2440EAE41642E0F40608F058
:1059C00025CF80EA92E08E199F098C159D0508F479
:1059D0001DCF4801CE0CDF1CC7018896EC14FD04D6
:1059E00009F414CFE0EAEE16E2E0FE0620F4F4013A
:1059F00064810E94F030FFEF8F1A9F0A2FEFE21AA6
:105A0000F20AEACF88E0EFE0F1E0DE019196019042
:105A10000D928A95E1F780E2F80111928A95E9F7F3
:105A200086E0898388E0FE01B196DE01159601903B
:105A30000D928A95E1F7EACE80EB8983BA821B82C8
:105A40001C82E4CE8C81682F70E0762F66278B81D4
:105A5000860F972F911D092E000CAA0BBB0B35E06A
:105A6000880F991FAA1FBB1F3A95D1F7AC01BD0142
:105A7000405E5F4F6F4F7F4F481759076A077B079C
:105A800008F4C4CE803BF1E09F07A105B10508F002
:105A9000BDCE413B21E052076105710520F040EB8E
:105AA00051E060E070E0481B590BBC0168537E4F29
:105AB000C8010E94A530AACE4EE150E06FEF70E021
:105AC000C3010E94BB3080910C018983EA829ECE83
:105AD00081E090E090931C0280931B0282E390E0AF
